:020000002329B2
:10000600710DF80DF90D7408F8027508031C750FCB
:10001600F902F00DF10D0F30FC00710DF80DF90D20
:100026007408701C1C28F8027508031C750FF90269
:100036002128F80775080318750FF907F00DF10D5B
:10004600FC0B102870182D287408F807750803187B
:08005600750FF9070000080016
:10005E00831203137408003A031D3E287508003AF4
:10006E00031D3E28FF30F0007F30F10097288312E9
:10007E000313FD01F901F80171087004031900342E
:10008E0071087506FA00FA1BFD09FB01F51F5428CD
:10009E00F409F509F40A0319F50AF11F5B28F009B2
:1000AE00F109F00A0319F10A71087504FA00FA1B36
:1000BE00702803207B188328FD1F0034F009F109F6
:1000CE00F00A0319F10AF809F909F80A0319F90AED
:1000DE000034F51F7F28F11B7B287108F90070088A
:1000EE00F800F101F0016328F101F001F00A00348B
:1000FE00F109F009FB0A6028F80A0319F90A7408D5
:10010E007802031D632875087902031D6328F9011F
:10011E00F801F00A0319F10AF11F63280000FF34F9
:02012E000800C7
:0E0130008312031323088A00220882000800AD
:10013E00831203132808A4002908A5008030250681
:10014E00F00080307002031DAE2801302402031C23
:10015E001629051486178519B52816290A30F400B4
:10016E000030F5002408F0002508F1002F2004309F
:10017E00F2007008AA007108AB0072080319CC28AF
:10018E00AA0DAB0D2A10FF3EC5280A30F400003030
:10019E00F5002408F0002508F1002F207808F00063
:1001AE007908F10070082A0787000B30FB00263013
:1001BE00FC005D30FD00FD0BE228FC0BE228FB0B82
:1001CE00E2280000000000302906031DF028173039
:1001DE002806031DFE2800302506031DF8280430CE
:1001EE002406031DFD2886170612861611290030D7
:1001FE002906031D04290F302806031D112900307E
:10020E002506031D0C2904302406031D112986170B
:10021E00861006150130A402031CA503A5280800AC
:10022E0098208A110A128000840AA20A0319A30ACE
:08023E00F003031D172908005D
:10024600013083120313A000A101073083169F001B
:10025600860187018501851485183329851134297E
:1002660085158312860187018617FF308500851D57
:100276005B298601861786150616A001A10117308F
:10028600A8000030A9009F208601861786118614D3
:10029600861206170130A0000030A1000F30A8001A
:1002A6000030A9009F208601861786150616262A85
:1002B600091486138518C32900302106031D6529F4
:1002C60001302006031DB829861006118615061270
:1002D60086160613861705100330A4000030A50005
:1002E60080302506F00080307002031D7C29003026
:1002F6002402031CB8290A30F4000030F500240853
:10030600F0002508F1002F200430F2007008A60046
:100316007108A700720803199529A60DA70D2610C6
:10032600FF3E8E290A30F4000030F5002408F00064
:100336002508F1002F207808F0007908F1007008F0
:10034600260787000B30FB002630FC005D30FD00E1
:10035600FD0BAB29FC0BAB29FB0BAB290000000006
:100366000130A402031CA503732986140611861105
:1003760006128612061705108613A001A101262A69
:10038600851C262A20082104031D1A2A8610061514
:100396008611061286120617861305140330A4006A
:1003A6000030A50080302506F00080307002031D65
:1003B600DE2900302402031C1A2A0A30F400003019
:1003C600F5002408F0002508F1002F200430F20083
:1003D6007008A6007108A70072080319F729A60D70
:1003E600A70D2610FF3EF0290A30F4000030F50074
:1003F6002408F0002508F1002F207808F00079087D
:10040600F1007008260787000B30FB002630FC0041
:100416005D30FD00FD0B0D2AFC0B0D2AFB0B0D2A92
:10042600000000000130A402031CA503D529051015
:1004360086138610061186150616861206130130D7
:0A044600A0000030A1003A29272A87
:02400E004A2F37
:00000001FF
